:1000000012C136C135C134C133C1A6C731C130C1F7
:100010002FC12EC12DC12CC12BC162C8E7C714143A
:10002000000005230101010100001E1E0000112B2C
:1000300002020202000028280000143C0505050504
:1000400000002800000000280101010101013C001E
:100050000000003C020202020202500000000050B8
:10006000030303030303280000002800010101012A
:1000700000023C0000003C000202020200045000AA
:1000800000005000030303030006280000000028BE
:100090000201000401003C000000003C04020006D4
:1000A0000200500000000050060300080300141472
:1000B000000000280100000100001E1E0000003C9E
:1000C0000200000200002828000000500500000582
:1000D0000000000A1E0F001E0100020100020014B1
:1000E00028190028020004020004001E32230032F6
:1000F0000300060300060F0F00000F0F00010100B0
:10010000010119190000191900020200020223233B
:10011000000023230003030003030A0A0A00001E51
:100120000000010000011111110000320000020066
:1001300000021717170000460000050000051E0A00
:10014000001E000001000001000028140032000021
:10015000020000020000321E0046000005000005FB
:100160000000001414001E00000100000100001E29
:100170001E00320000020000020000282800460095
:100180000005000005000523000F0F00010100011C
:1001900001000A3200191900020200020200143C98
:1001A00000232300030300030300000A1E001E00B7
:1001B00001010100000000142800320002020200C8
:1001C0000000001E320046000303030000000F0F72
:1001D00000000F0F0000000000001919000019199D
:1001E0000000000000002323000023230000000083
:1001F0000000000000003700000000003800000090
:1002000000003600020202020202020202020102A1
:10021000040810202004100801020000040000005F
:100220000000D80B330C11241FBECFE5D2E0DEBF97
:10023000CDBF10E0A0E6B0E0E8E0FCE102C0059030
:100240000D92A836B107D9F721E0A8E6B0E001C0C9
:100250001D92A730B207E1F711E0C2E1D1E003C07F
:100260002197FE0193DBC131D107D1F752D7C0CC22
:10027000C7CE909100019923A1F090910201903294
:1002800040F590910101E92FF0E0E859FF4F80839C
:1002900081E0890F809301018093020181E090E069
:1002A00008952091FE009091FD002F5F921B9F709A
:1002B00081F09091FE009F5F9F702091FD0092174A
:1002C000E1F3E92FF0E0E858FF4F80839093FE00C0
:1002D000E5CF90E080E008954F925F926F927F9219
:1002E0008F929F92AF92BF92EF92FF92CF93DF9344
:1002F0004091F5005091F2002091F0003091F10012
:100300008090EF00E42EF12CE091F300F0E0A0915A
:10031000F400B0E045135FC063E070E0D1DA820F13
:10032000931FEC01CE0DDF1D2881E80FF91FF0802F
:10033000A80FB91FCC91882009F442C0912CB12C90
:10034000A12C622F70E0762F6627072E000C880BF9
:10035000990BA5019401F8DA3901552444246F2D35
:1003600070E0762F6627072E000C880B990BA501ED
:100370009401EADAB42FA32F922F8827482A592A0A
:100380006A2A7B2A6C2F70E0762F6627072E000CD6
:10039000880B990BA5019401D7DAC301B201622B36
:1003A000732B842B952BDF91CF91FF90EF90BF9013
:1003B000AF909F908F907F906F905F904F90089537
:1003C0006F2D70E090E080E0982F872F762F6627C2
:1003D000822B6C2BE8CF880F991F880F991F820FF3
:1003E000931FE80EF91EE7013881EC01C50FD11DFE
:1003F000F880E80FF91FC081A80FB91FEC90882082
:1004000009F447C0912CB12CA12C632F70E0762FFA
:100410006627072E000C880B990BA501940194DA2E
:10042000722E6624552444246F2D70E0762F6627A3
:10043000072E000C880B990BA501940185DAA90100
:1004400033272227422A532A642A752A6E2D70E008
:10045000762F6627072E000C880B990BA5019401B7
:1004600073DA422A532A642A752A6C2F70E0762F99
:100470006627072E000C880B990BA501940164DAFE
:10048000942F832F722F662764297529862997292F
:100490008ACF6F2D70E090E080E0CB017727662750
:1004A000932B6E297C2B7FCF83E087B9369A3699C0
:1004B000FECF84B195B10895823089F018F481306F
:1004C00051F00895833019F0843009F008958CB507
:1004D0008F7D8CBD08958AB58F778ABD08958AB5C2
:1004E0008F7DFBCFCF93DF93E9E1F2E08491EFE0E2
:1004F000F2E0D491E5E0F2E0C491CC2399F08111CF
:10050000DBDFEC2FF0E0EE0FFF1FE250FE4FA59176
:10051000B491EC91ED2381E090E009F480E0DF916B
:10052000CF91089580E090E0FACF1F93CF93DF93AF
:10053000282F30E0F901E85EFD4F8491F901E25F78
:10054000FD4FD491F901EC5FFD4FC491CC23A1F094
:10055000162F8111B1DFEC2FF0E0EE0FFF1FE850F6
:10056000FE4FA591B4918FB7F894EC91111108C08A
:10057000D095DE23DC938FBFDF91CF911F9108953B
:10058000DE2BF8CFCF93DF9390E0FC01E25FFD4FCD
:1005900024918C5F9D4FFC0184918823D1F090E0E1
:1005A000880F991FFC01EE50FE4FA591B491FC01FC
:1005B000E850FE4FC591D49161110EC09FB7F894D9
:1005C0008C91E22FE0958E238C932881E223E8839F
:1005D0009FBFDF91CF9108958FB7F894EC91E22BF4
:1005E000EC938FBFF6CF3FB7F89480918E00909137
:1005F0008F00A0919000B091910022B708B601FE43
:1006000005C02F3F19F00196A11DB11D3FBFBA2FA4
:10061000A92F982F8827BC01CD01620F711D811D64
:10062000911D43E0660F771F881F991F4A95D1F7E8
:1006300008950F931F93CF93DF9300D000D000D085
:100640001F92CDB7DEB78091F0009091F100892B19
:1006500009F488C0C8DF0091F6001091F7002091DE
:10066000F8003091F900601B710B820B930B6C3218
:1006700071408105910570F3F8948091EB009091A1
:10068000EC009A838983A091F000B091F100FD0104
:1006900031968C918F831B8298B38091FC00982BAC
:1006A0009E8398B3809589238D838D818C838F81E0
:1006B00087FF02C08E818C835E816D814F813C817A
:1006C0002B8189819A8158BB262F38BB00C046FDFB
:1006D000252F68BB00C058BB362F28BB00C045FD86
:1006E000352F68BB00C058BB262F38BB00C044FD67
:1006F000252F68BB00C058BB362F28BB00C043FD68
:10070000352F68BB00C058BB262F38BB00C042FD48
:10071000252F68BB00C058BB362F28BB00C041FD49
:10072000352F68BB00C058BB262F38BB00C040FD2A
:10073000252F68BB019758BB362F28BB419147FD39
:10074000352F68BB01F64F833C832B839A838983C3
:10075000789449DF6093F6007093F7008093F80077
:100760009093F90027960FB6F894DEBF0FBECDBF69
:10077000DF91CF911F910F9108958F929F92AF9229
:10078000BF92CF92DF92EF92FF924B015C012BDF81
:100790006B017C0128DF6C197D098E099F09683E79
:1007A000734081059105B0F321E0821A9108A108F8
:1007B000B10888EEC80E83E0D81EE11CF11C81143C
:1007C0009104A104B10431F7FF90EF90DF90CF9036
:1007D000BF90AF909F908F9008952FB7F89460913D
:1007E0008A0070918B0080918C0090918D002FBFBA
:1007F00008958F929F92AF92BF92EF92FF920F93C4
:100800001F93CF93DF938A019B019091C900492FD9
:10081000480F5527551FCA0168E170E082D8DC01F6
:100820008091E9009091EA00A817B90708F040C04C
:10083000A90166277727F42E812E922EA32EBB24A2
:10084000D82DE02EC091EF00CC2389F0EC2FF0E002
:10085000842F90E0BF0134D8F92E882D90E0BF019D
:100860002FD8D92F802F90E0BF012AD8E92E4091B0
:10087000F500E091F000F091F1008091F200481352
:1008800022C0CD0163E070E01BD8E80FF91FA091F2
:10089000F200AE0FBF2FB11DFC92A091F300AE0F7E
:1008A000BF2FB11DDC938091F400E80FF11DE082B1
:1008B000DF91CF911F910F91FF90EF90BF90AF907C
:1008C0009F908F900895AA0FBB1FAA0FBB1FEA0F1E
:1008D000FB1F032F112722273327902FCC2321F032
:1008E0008C2F90E0B801ECD7DF01A40FB11D9C93D1
:1008F000CECFEF92FF920F931F93CF93DF9390E0B1
:1009000064E270E0DDD7825E9F4FA9E9B0E005EABE
:1009100010E02DEB30E0C1EBD0E040E0A53AB407A9
:1009200009F454C0FC013296F49031974491FC01D3
:10093000E49050E070E060E0762F652F542F44275C
:100940006E294F294D935D936D937D933596F49069
:10095000319744913197E49150E070E060E0762F58
:10096000652F542F44276E2B4F29F8014193519343
:10097000619371938F01FC013896F4903197449103
:100980003197E49150E070E060E0762F652F542FAE
:1009900044276E2B4F29F901419351936193719331
:1009A0009F01FC013B96F4903197E490319744917C
:1009B00050E070E060E0BA01552744275E294F29D6
:1009C00049935993699379930C96A7CF83E08093C9
:1009D0009800DF91CF911F910F91FF90EF900895B4
:1009E000E8EEF0E04381548170E060E0808591851D
:1009F000F8C8CF92DF92EF92FF92CF9310929800B7
:100A0000C0919800C33030F5EBDF13DE62E370E095
:100A100080E090E0B2DEE091D600F0E0EE0FFF1F44
:100A2000EE0FFF1FEB55FF4FC080D180E280F380B7
:100A3000B701A60185E1DDDEB701A60183E0D9DEBD
:100A4000F8DD68EE73E080E090E097DECF5FC09362
:100A50009800D6CF80E180939800C0919800C8306C
:100A6000C8F0E091D600F0E0EE0FFF1FEE0FFF1F81
:100A7000E756FF4F40815181628173818C2FB9DE2F
:100A8000D8DD64E670E080E090E077DEC150C0938E
:100A90009800E3CF6CED75E080E090E06EDE1092A0
:100AA0009800C0919800C23020F540E050E0BA01B3
:100AB00083E09FDEBEDD6CE271E080E090E05DDE11
:100AC000E091D600F0E0EE0FFF1FEE0FFF1FEB5599
:100AD000FF4F408151816281738183E08ADEA9DD0D
:100AE00068EE73E080E090E048DECF5FC09398004E
:100AF000D8CFCF91FF90EF90DF90CF900895CF9215
:100B0000DF92EF92FF920F931F93CF93DF93182FF3
:100B1000613071F4E82FF0E0EE0FFF1FE952FF4F54
:100B20008081918101968831910548F59183808378
:100B3000BBDC68E270E0F5D6062F693108F008E109
:100B4000C091D600D0E0CC0FDD1FCC0FDD1FFE0121
:100B5000111118C0E354FF4FC080D180E280F380B0
:100B60003FDF1092980010919800101770F4B701B1
:100B7000A601812F3EDE1F5F10939800F4CF1182F3
:100B80001082D6CFEF54FF4FE7CFFE01EB55FF4F5A
:100B900040815181628173818091D7002ADEC756DE
:100BA000DF4F488159816A817B818091D90021DEA4
:100BB000DF91CF911F910F91FF90EF90DF90CF9039
:100BC00038CD8EB98BE29EE09A95F1F78DB9B29B44
:100BD000FECF96E09A95F1F700C08DB9769BF3CFE2
:100BE0008EE08A95F1F78FB19FEF9FB9B89A08957B
:100BF000FF920F931F93CF93DF93062F142F21E0C3
:100C00002093FF00FC01208120FD03C023E02093FE
:100C1000FF00C29AB29BFECFF6E0FA95F1F700C052
:100C2000C09826E02A95F1F700C0C298C09A77993B
:100C30000BC087E08093FF0010E0812FDF91CF9100
:100C40001F910F91FF900895EC01FF24FA94809179
:100C5000FF00837019F1C29888818FB980EFB1DFEE
:100C6000B8988EEFAEDF80FF0CC08091FF00182F88
:100C7000117080FF02C086E0DDCF85E08093FF0029
:100C8000DCCF8091FF008E7F8093FF000150219682
:100C90000111DDCF11110EC011E0CFCFB89880EF58
:100CA00090DF8883013021F4FFB88EEF8ADFEECF2A
:100CB0001FB8FBCFC098C29AB29BFECF86E08A9540
:100CC000F1F700C0C09AEEE0EA95F1F77599E4CF2C
:100CD00088E0D4CF482F6091020188E690E088DF59
:100CE000109201011092020110920001811110C0B6
:100CF0008091FF00853041F0863021F0813031F461
:100D000081E0089582E0089583E0089584E00895E5
:100D100080E00895DF92EF92FF920F931F93CF939D
:100D2000DF93CDB7DEB762970FB6F894DEBF0FBE84
:100D3000CDBFE886F9860A871B872C873D874E87BB
:100D40005F87688B798B8A8B8D859E85803D27E0B8
:100D500092070CF445C0805D00E8988599839985D9
:100D60009A839A859B839F859C839B859D839C8585
:100D70009E838F8381E08093000190ED90936800C3
:100D8000809301018093020180E073DACE01019625
:100D90007C0110E08AE0D82EF70180816D2DA1D56D
:100DA0008295807F980F91937F01153019F48E8181
:100DB000800F8E83F701319780815BDA1F5F1730D8
:100DC00059F781E062960FB6F894DEBF0FBECDBF33
:100DD000DF91CF911F910F91FF90EF90DF907ACF2D
:100DE0008C5600E0BACF1F93CF93DF9300D000D092
:100DF00000D01F92CDB7DEB711E01093000180ED57
:100E000080936800109301011093020180E031DAB1
:100E100081E060DF81ED8093680041E068E088E672
:100E200090E0E6DE10930101811151C010930201A0
:100E300010910201DE01119641E070E050E01123B3
:100E400009F449C0411360C02FEF3FEF822F829514
:100E50008F70922F9F70553009F05DC081706AE0ED
:100E600026D5890F8E83722F771F7727771F5F5FB5
:100E70001196573021F7409301012F81822F90E086
:100E8000713009F04DC08053984F39813093DD00A7
:100E90003A813093DE003B813093DF003D81309317
:100EA000E0003E813093E1009093E3008093E20004
:100EB0008C818093E4002093E70027960FB6F89486
:100EC000DEBF0FBECDBFDF91CF911F91089588E0A7
:100ED00080930201ADCF9091DC008091DB00891BF3
:100EE0008F7009F4B1CF9091DC008091DB009817EE
:100EF000E1F3E091DC00EF5FEF70E093DC00F0E005
:100F0000E859FF4F2081A2CFE42FF0E0E859FF4FCE
:100F100020814F5F9BCF6AE0CAD4890F8C93A7CF03
:100F20008459984FB2CFB5C469E081E090E0FBDF0F
:100F300061E182E090E0F7DF60E083E090E0F3DFE2
:100F400060E084E090E0EFDF60E090E080E0EBDFE5
:100F5000F0E0E0E0099495C41F920F920FB60F9253
:100F600011242F933F938F939F93AF93BF938091BF
:100F70008A0090918B00A0918C00B0918D003091EF
:100F8000890026E0230F2D3758F50296A11DB11DCB
:100F90002093890080938A0090938B00A0938C000B
:100FA000B0938D0080918E0090918F00A091900061
:100FB000B09191000196A11DB11D80938E00909378
:100FC0008F00A0939000B0939100BF91AF919F913B
:100FD0008F913F912F910F900FBE0F901F901895FA
:100FE00029E8230F0396A11DB11DD2CF1F920F92A6
:100FF0000FB60F9211242F938F939F93EF93FF932C
:1010000080918800823009F45EC078F4882349F129
:10101000813009F43EC0FF91EF919F918F912F9104
:101020000F900FBE0F901F901895843009F451C097
:1010300048F1853081F784E0809388009FB18091EA
:10104000DB008F5F8F702091DC00281709F446C009
:101050008093DB00E091DB00F0E0E859FF4F9083E4
:101060000BC08FB1882319F08FB1869571F4789BEE
:1010700007C081E0809388001FB8B89A8EE721C02E
:1010800084E0F8CF8FB1882321F0B89888EA8DB931
:1010900017C08091FD009091FE009817B1F38091E8
:1010A000FD008F5F8F708093FD00E091FD00F0E008
:1010B000E858FF4F80818FB982E080938800B89A0A
:1010C00080E78EB9A8CF83E080938800B8981FB8D6
:1010D000D5CF85E080938800B898F2CFB898CECF6E
:1010E0001F920F920FB60F9211248F9310928800C7
:1010F000B898B29B04C0B09BFCCF88EA01C088EFCF
:101100008DB980EF8EB98F910F900FBE0F901F9009
:10111000189578948AB582608ABD8AB581608ABD47
:1011200083B7826083BF83B7816083BF89B78260E2
:1011300089BF80B7826080BF80B7816080BF8CB577
:1011400080648CBD329A319A3098379A8CB580641D
:101150008CBD60E081E016DA61E081E0E6D9809143
:10116000ED009091EE0097FD06C061E00BDA60E0C3
:101170008091ED00DAD9C1E0C093E8005ADA10920C
:1011800001011092020110920001C09AC29ABA9A0B
:10119000B89A8FEF8FB98AE28DB980EF8EB9C0937C
:1011A000000180ED80936800C0930101C0930201AB
:1011B0008EE05FD884E05DD881E08CDD90E080E057
:1011C000CADE8111B1DE81E090E0C5DE90E090934F
:1011D000D8008093D70082E090E0BDDE90E090934D
:1011E000DA008093D90083E090E0B5DE8093C900F7
:1011F00084E090E0B0DE8093CA007BDB1092D600E2
:101200006DE0262E312C76E9A72EB12C99249394EB
:10121000E2E08E2E49D968E270E083D32091D700B6
:101220003091D8006217730710F41092D6008091A5
:10123000D9009091DA002617370728F46817790744
:1012400010F49092D6008617970710F48092D6007B
:1012500049D9892BB9F480916000813099F4BDDAC5
:101260006093D2007093D3008093D4009093D50004
:101270006093CE007093CF008093D0009093D10004
:1012800010926000C091CD00C093CC002BD9019783
:1012900029F580916000811121C09FDA6093D2000E
:1012A0007093D3008093D4009093D5000091CE002A
:1012B0001091CF002091D0003091D100DC01CB0102
:1012C000801B910BA20BB30B90926000813127E23F
:1012D0009207A105B10508F457C026DE7EDA009119
:1012E000D2001091D3002091D4003091D500601B22
:1012F000710B820B930B683873418105910538F0AF
:101300008091CD008550823010F01092CD008091F8
:10131000CC009091CD00891739F1833029F4609188
:10132000CA0084E090E0FFDD8091CC00843029F495
:101330006091C90083E090E0F6DD8091CC008530BB
:1013400029F46091D70081E090E0EDDD8091CC0040
:10135000863029F46091D90082E090E0E4DD80914C
:10136000CD00811101C045DBE091CD00E73008F0F0
:10137000B7C0F0E0E354F64F099418C0BAC004C1F6
:101380007CC1DFC10CC210C2893E23E09207A105D7
:10139000B10520F0CF5FC093CD00A0CFC397A105CA
:1013A000B10508F49BCF9092CB0098CF8091CB00F1
:1013B000813009F41EDB11DA009194001091950040
:1013C0002091960030919700601B710B820B930B5C
:1013D000643F71408105910508F482C0FED9609395
:1013E0009400709395008093960090939700FBDC97
:1013F0008091DF006CE075D2192F110F10939300CC
:101400008091DE0090E06CE370E05AD22091DD0024
:10141000820F911DB50171D2062F60939200E0DA20
:10142000C091D600D0E0CC0FDD1FCC0FDD1FFE0138
:10143000E354FF4F4080518062807380B301A2016A
:1014400080E0D7D9B301A20186E0D3D9B301A201CC
:101450008CE0CFD9B301A20182E1CBD9FE01EF54D8
:10146000FF4F4080518062807380B301A20182E00F
:10147000C0D9B301A20184E0BCD9B301A20188E0C4
:10148000B8D9B301A2018AE0B4D9B301A2018EE0B8
:10149000B0D9B301A20180E1ACD9B301A20184E1CA
:1014A000A8D9B301A20186E1A4D9FE01E756FF4FF6
:1014B0004080518062807380B301A201812F99D94D
:1014C000CB55DF4F488159816A817B81802F101372
:1014D00005C0440D551D661D771D812F8AD9A9D8D9
:1014E0001092CB0080E090E0892B09F493CE88D550
:1014F00091CEC091CB0077DC8091DF008C0F8831DA
:1015000008F03FC08093DF00E090DD00F090DE0047
:101510000091DF001091E0002091E1003091E200A5
:101520004091E3005091E4006091E5007091E60085
:101530008091E700EFDB54DAC091D600D0E0CC0F09
:10154000DD1FCC0FDD1FFE01E354FF4F40805180B3
:1015500062807380B301A20180E04BD9B301A20184
:101560008CE047D9C756DF4F088119812A813B811A
:101570008091DF006CE0B5D1B901A801892F880FF7
:10158000ADCF1092DF00C0CFC091CB002CDCCC23BC
:1015900001F18091DE008F5F8C3308F06BC0809387
:1015A000DE001092DD00E12CF090DE000091DF0003
:1015B0001091E0002091E1003091E2004091E300C1
:1015C0005091E4006091E5007091E6008091E700A1
:1015D000A1DB8091DE006AE084D1082F000F000FAC
:1015E000FFD9C091D600D0E0CC0FDD1FCC0FDD1F9E
:1015F000FE01E354FF4F4080518062807380B3014D
:10160000A20180E0F6D8B301A20186E0F2D8B301CE
:10161000A2018CE0EED8B301A20182E1EAD8FE017A
:10162000EB55FF4F4081518162817381802FE1D85A
:10163000109298003AE0632ECF54DF4F10E0709084
:1016400098008091DE00662D4CD1791608F047CFC6
:10165000C880D980EA80FB80C801870D911D019662
:1016600068E170E05ED1B701A601C3D873947092AF
:101670009800E5CF1092DE0094CF8091CB008823B4
:1016800049F08091CA008F5F90E0B10136D180931C
:10169000CA002FD9A5D9C091D600D0E0CC0FDD1F4C
:1016A000CC0FDD1FFE01EB55FF4F40805180628063
:1016B0007380B301A20182E09CD8B301A20183E050
:1016C00098D8B301A20184E094D8FE01E756FF4FF9
:1016D0004080518062807380B301A20184E189D887
:1016E000B301A20185E185D8B301A20186E181D8C9
:1016F000FE01E354FF4F4080518062807380B3014C
:10170000A20186E076D8B301A2018CE072D8B301C1
:10171000A20182E16ED8CF54DF4F488059806A80A1
:101720007B80B301A20188E064D8B301A2018AE002
:1017300060D8B301A2018EE05CD8B301A20180E1C0
:10174000CDCE8091CB00882339F08091C9008F5F86
:1017500068E1C7D09093C90043D9C091D600D0E0CA
:10176000CC0FDD1FCC0FDD1FFE01E354FF4F408186
:1017700051816281738180E03CD8CF54DF4F488033
:1017800059806A807B80B301A2018BE032D8B3011B
:10179000A2018CE02ED8B301A2018DE09FCE609112
:1017A000CB0080E0ACD99CCE6091CB0081E0FACF39
:1017B0001092E8001092EF001092F6001092F700DD
:1017C0001092F8001092F90081E08093F500809368
:1017D000F2001092F30082E08093F40088E490E03D
:1017E0009093EC008093EB00D7D09093F10080931E
:1017F000F000009779F128E4FC0111922A95E9F7AD
:1018000088E190E09093EA008093E90088E090E01E
:101810009093EE008093ED008091E800882331F0F2
:1018200061E088E0AFD660E088E07FD6ECE0F2E0EF
:10183000E491F0E0EE0FFF1FE850FE4F8591949188
:101840009093FB008093FA00E6E1F2E0E491E093EC
:10185000FC0008951092EC001092EB001092EA0048
:101860001092E900D3CF8091F0009091F10030D137
:101870008091ED009091EE0097FD02C060E082C67D
:101880000895E199FECF9FBB8EBBE09A99278DB357
:101890000895262FE199FECF1CBA9FBB8EBB2DBBAE
:1018A0000FB6F894E29AE19A0FBE019608950024CB
:1018B00080FD060E660F11F08695D1F7802D0895F4
:1018C0000024552704C0080E591F880F991F009740
:1018D00029F076956795B8F37105B9F7802D952FA6
:1018E0000895991B79E004C0991F961708F0961B7C
:1018F000881F7A95C9F780950895AA1BBB1B51E1F3
:1019000007C0AA1FBB1FA617B70710F0A61BB70B6F
:10191000881F991F5A95A9F780959095BC01CD0114
:10192000089597FB072E16F4009406D077FD08D093
:10193000E4DF07FC05D03EF4909581959F4F089514
:10194000709561957F4F0895A1E21A2EAA1BBB1BCB
:10195000FD010DC0AA1FBB1FEE1FFF1FA217B3077B
:10196000E407F50720F0A21BB30BE40BF50B661F91
:10197000771F881F991F1A9469F760957095809555
:1019800090959B01AC01BD01CF010895EE0FFF1FA3
:101990000590F491E02D09940F931F93CF93DF935B
:1019A0008230910510F482E090E0E0910501F09121
:1019B000060130E020E0B0E0A0E0309799F4211576
:1019C000310509F44AC0281B390B24303105D8F5FC
:1019D0008A819B816115710589F1FB019383828363
:1019E000FE0111C0408151810281138148175907BE
:1019F000E0F04817590799F4109761F012960C938C
:101A0000129713961C933296CF01DF91CF911F91BD
:101A10000F9108950093050110930601F4CF21154D
:101A2000310551F04217530738F0A901DB019A0143
:101A3000BD01DF01F801C1CFEF01F9CF909306019D
:101A400080930501CDCFFE01E20FF31F81939193A7
:101A50002250310939832883D7CF20910301309157
:101A60000401232B41F420916300309164003093F2
:101A7000040120930301209161003091620021153F
:101A8000310541F42DB73EB7409165005091660095
:101A9000241B350BE0910301F0910401E217F307D9
:101AA000A0F42E1B3F0B2817390778F0AC014E5FCE
:101AB0005F4F2417350748F04E0F5F1F5093040106
:101AC00040930301819391939FCFF0E0E0E09CCF9E
:101AD000CF93DF930097E9F0FC01329713821282D3
:101AE000A0910501B0910601ED0130E020E01097D2
:101AF000A1F420813181820F931F20910301309145
:101B000004012817390709F061C0F0930401E0933C
:101B10000301DF91CF910895EA01CE17DF07E8F5C1
:101B20004A815B819E0141155105B1F7E901FB83B3
:101B3000EA8349915991C40FD51FEC17FD0761F451
:101B4000808191810296840F951FE9019983888392
:101B5000828193819B838A83F0E0E0E012968D91ED
:101B60009C9113970097B9F52D913C911197CD0158
:101B70000296820F931F20910301309104012817D0
:101B8000390739F6309751F5109206011092050188
:101B9000B0930401A0930301BCCFD383C2834081DF
:101BA0005181840F951FC817D90761F44E5F5F4FAD
:101BB00088819981480F591F518340838A819B8175
:101BC000938382832115310509F0B0CFF09306018C
:101BD000E09305019ECFFD01DC01C0CF138212828C
:101BE000D7CFDC0101C06D9341505040E0F708951C
:101BF00011E0C2E1D1E003C0FE01C8DE2196C3318D
:081C0000D107D1F7F894FFCFE2
:081C080001000007018000004B
:00000001FF
